{
  "contractName": "SmartContractFairTrade",
  "abi": [
    {
      "constant": true,
      "inputs": [
        {
          "name": "",
          "type": "address"
        }
      ],
      "name": "monthlyWage_",
      "outputs": [
        {
          "name": "",
          "type": "uint256"
        }
      ],
      "payable": false,
      "stateMutability": "view",
      "type": "function"
    },
    {
      "constant": true,
      "inputs": [],
      "name": "admin_",
      "outputs": [
        {
          "name": "",
          "type": "address"
        }
      ],
      "payable": false,
      "stateMutability": "view",
      "type": "function"
    },
    {
      "constant": true,
      "inputs": [],
      "name": "employee_",
      "outputs": [
        {
          "name": "",
          "type": "address"
        }
      ],
      "payable": false,
      "stateMutability": "view",
      "type": "function"
    },
    {
      "inputs": [
        {
          "name": "_admin",
          "type": "address"
        },
        {
          "name": "_employee",
          "type": "address"
        }
      ],
      "payable": false,
      "stateMutability": "nonpayable",
      "type": "constructor"
    },
    {
      "anonymous": false,
      "inputs": [
        {
          "indexed": false,
          "name": "unlockTime",
          "type": "uint256"
        },
        {
          "indexed": false,
          "name": "amount",
          "type": "uint256"
        }
      ],
      "name": "SalaryPlaced",
      "type": "event"
    },
    {
      "anonymous": false,
      "inputs": [
        {
          "indexed": false,
          "name": "amount",
          "type": "uint256"
        }
      ],
      "name": "SalaryClaimed",
      "type": "event"
    },
    {
      "constant": false,
      "inputs": [],
      "name": "placeSalary",
      "outputs": [],
      "payable": true,
      "stateMutability": "payable",
      "type": "function"
    },
    {
      "constant": true,
      "inputs": [],
      "name": "checkBalance",
      "outputs": [
        {
          "name": "",
          "type": "uint256"
        }
      ],
      "payable": false,
      "stateMutability": "view",
      "type": "function"
    },
    {
      "constant": false,
      "inputs": [],
      "name": "claimSalary",
      "outputs": [],
      "payable": true,
      "stateMutability": "payable",
      "type": "function"
    }
  ],
  "bytecode": "0x608060405234801561001057600080fd5b5060405160408061053c833981018060405281019080805190602001909291908051906020019092919050505080600160006101000a81548173ffffffffffffffffffffffffffffffffffffffff021916908373ffffffffffffffffffffffffffffffffffffffff160217905550816000806101000a81548173ffffffffffffffffffffffffffffffffffffffff021916908373ffffffffffffffffffffffffffffffffffffffff160217905550505061046d806100cf6000396000f300608060405260043610610078576000357c0100000000000000000000000000000000000000000000000000000000900463ffffffff1680633a6acc001461007d578063a4baf750146100d4578063a5052d861461012b578063bfed38b414610182578063c71daccb1461018c578063d7b92d45146101b7575b600080fd5b34801561008957600080fd5b506100be600480360381019080803573ffffffffffffffffffffffffffffffffffffffff1690602001909291905050506101c1565b6040518082815260200191505060405180910390f35b3480156100e057600080fd5b506100e96101d9565b604051808273ffffffffffffffffffffffffffffffffffffffff1673ffffffffffffffffffffffffffffffffffffffff16815260200191505060405180910390f35b34801561013757600080fd5b506101406101fe565b604051808273ffffffffffffffffffffffffffffffffffffffff1673ffffffffffffffffffffffffffffffffffffffff16815260200191505060405180910390f35b61018a610224565b005b34801561019857600080fd5b506101a16102b5565b6040518082815260200191505060405180910390f35b6101bf6102d4565b005b60036020528060005260406000206000915090505481565b6000809054906101000a900473ffffffffffffffffffffffffffffffffffffffff1681565b600160009054906101000a900473ffffffffffffffffffffffffffffffffffffffff1681565b34600360003373ffffffffffffffffffffffffffffffffffffffff1673ffffffffffffffffffffffffffffffffffffffff16815260200190815260200160002081905550601442016002819055507f3aa2118ac6777350b99a3dae965b177de24a34a107d1764239f2be0f1f0c093160025434604051808381526020018281526020019250505060405180910390a1565b60003073ffffffffffffffffffffffffffffffffffffffff1631905090565b600160009054906101000a900473ffffffffffffffffffffffffffffffffffffffff1673ffffffffffffffffffffffffffffffffffffffff163373ffffffffffffffffffffffffffffffffffffffff1614151561033057600080fd5b60025442101515156103aa576040517f08c379a00000000000000000000000000000000000000000000000000000000081526004018080602001828103825260108152602001807f596f752061726520746f6f20736f6f6e0000000000000000000000000000000081525060200191505060405180910390fd5b3373ffffffffffffffffffffffffffffffffffffffff166108fc3073ffffffffffffffffffffffffffffffffffffffff16319081150290604051600060405180830381858888f19350505050158015610407573d6000803e3d6000fd5b507f820c6621be1c4c1e4c1be498e4d5fae5055b0fbebd8e404121c80aada22d9a2f346040518082815260200191505060405180910390a15600a165627a7a723058204a105f476fcfc931c664a713b300e7e00f01f2dc0b080e91c2ce5dabe3e7f3490029",
  "source": "pragma solidity 0.4.24;\n\ncontract SmartContractFairTrade{\n    address public  admin_;\n    address public employee_;\n    uint256 unlockTime_;\n    mapping(address => uint256) public monthlyWage_;\n\n    event SalaryPlaced(uint256 unlockTime, uint256 amount);\n    event SalaryClaimed(uint256 amount);\n  \n    constructor (address _admin, address _employee) public {\n          employee_ = _employee;\n          admin_ = _admin;\n    }\n    \n    function placeSalary() external payable {\n        monthlyWage_[msg.sender] = msg.value;\n        unlockTime_ = now + 20 seconds;\n       \n        emit SalaryPlaced(unlockTime_, msg.value);\n    }\n    \n    function checkBalance() view returns(uint256) {\n        return this.balance;\n    }\n    \n    function claimSalary() external payable {\n        require(msg.sender == employee_);\n        require(now >= unlockTime_, \"You are too soon\");\n        msg.sender.transfer(this.balance);\n        emit SalaryClaimed(msg.value);\n    }\n}",
  "sourcePath": "/home/a/Desktop/blg/clearContract/src/contracts/clearContract.sol",
  "compiler": {
    "name": "solc",
    "version": "0.4.24+commit.e67f0147.Emscripten.clang"
  },
  "schemaVersion": "2.0.1",
  "updatedAt": "2018-11-03T17:23:09.877Z"
}